{
  "valid": [
    {"password" : "password",
     "pwDerivedKey" : [12, 37, 184, 176, 141, 255, 15, 70, 189, 195, 206, 218, 109, 172, 141, 233, 117, 114, 2, 10, 156, 57, 255, 102, 37, 66, 2, 177, 82, 70, 1, 246],

      "seed": "77c2b00716cec7213839159e404db50d",
      "mnSeed": "jelly better achieve collect unaware mountain thought cargo oxygen act hood bridge",
      "hdIndex": 0,
      "privKeyHex": "7627f5655d3f103f0be5c90064bd3557995604e6208590986de4e1230425c1ae",
      "address": "07ed7f762488ffa46298afeba33f05a04c796833",
     "ethjsTxParams" : {"from" : "0x07ed7f762488ffa46298afeba33f05a04c796833",
                        "to" : "0x9e2068cce22de4e1e80f15cb71ef435a20a3b37c",
                        "nonce" : "0x00",
                        "value" : "0xde0b6b3a7640000",
                        "gasLimit" : "0x2fefd8",
                        "gasPrice" : "0xba43b7400",
                       "data" : "0xabcdef01234567890"},
     "web3TxParams" : {"from" : "0x07ed7f762488ffa46298afeba33f05a04c796833",
                        "to" : "0x9e2068cce22de4e1e80f15cb71ef435a20a3b37c",
                        "nonce" : "0x00",
                        "value" : "0xde0b6b3a7640000",
                        "gas" : "0x2fefd8",
                        "gasPrice" : "0xba43b7400",
                       "data" : "0xabcdef01234567890"},
     "rawUnsignedTx" : "f680850ba43b7400832fefd8949e2068cce22de4e1e80f15cb71ef435a20a3b37c880de0b6b3a7640000890abcdef012345678901c8080",
     "rawSignedTx" : "f87680850ba43b7400832fefd8949e2068cce22de4e1e80f15cb71ef435a20a3b37c880de0b6b3a7640000890abcdef012345678901ca08de63b51b4b9cc5bc09f7f9610d707f43c5840b37dffe655d0073b270032511ba01c31647c5cb6d32676e73bd0ea618fa9f3fa2a7c0132e11a593b2e44cc500323",
      "m/0'/0'/1'" : {"addresses" : [ "d540ec8e4de76484e31cdce612f1d4da196e6987",
                                      "f65f355fd6c0771a9fa9dc31191dcafe1cc79934",
                                      "1fb2a56e077aa64236623baea6fae20c6209d885",
                                      "3c2b55c8019eec2ceea5154cc6d150e877a68a69",
                                      "ee77f5a7f61ff11b8734c043db0ed5bc7afd8447" ]},

      "m/0'/0'/5'" : {"addresses" : [ "427bfa1ebd65dd5a136ed3112fe5f72e7cebe43a",
                                      "a4c2f35340307e50b453ccd6574db054d2ef357a",
                                      "618c683268c1c2a75f28e158943977e81b7568a1",
                                      "060e9bb7211af94a13f2d09cec767d5d2ca4acc1",
                                      "558e33b4272da4b004470a4ada4e673cc972379a",
                                      "6b85cc8f612d5457d49775439335f83e12b8cfde",
                                      "cbd22ff1ded1423fbc24a7af2148745878800024" ]},

     "m/0'/0'/2'" : {"pubKeys" : ["9b2b6699ad63eaf4f08c5a16d29eaf9db40dfb47b6c41d16bb00368564b76f10",
                                  "eaa70a8727385e6e0af7ce718874065a3cba0b994555543288b79901e320be20",
                                  "70d505a34e1ff438a6e0fca3ba37ba8e3c7d7b9843a5762b45d3be9e4d38633f",
                                  "7c2864ef868146251c881d2cb4e92cab3a1868bb3fc49b233a4471dcb1bc050e",
                                  "9c493f840b54cb4d48c1dbc8dacf4b7fa6a471e4f462eae3f64ebf10fcd9430c",
                                  "170023f3a4ef99ae36f97bfedb8e55be277755a2b1b8caa35067cfe93e467b1d" ]}
     

    },

    {"password" : "asdflknwqeroilasdflkjnzvmnwmet",
     "pwDerivedKey" : [24,100,147,66,23,117,206,186,27,54,254,137,187,174,103,5,38,18,139,128,139,74,217,188,166,34,0,30,54,133,158,208],
      "seed": "0460ef47585604c5660618db2e6a7e7f",
      "mnSeed": "afford alter spike radar gate glance object seek swamp infant panel yellow",
      "hdIndex": 1,
      "privKeyHex": "8846068358cda43b5f00a0898ccb381402062b7cd668c0f9233845e4c0c9bc73",
      "address": "50cca5d6fd56696eaa085ca7f401c1b42c747642"
    },

    {"password" : "!@&#*#()",
     "pwDerivedKey" : [51,238,218,224,61,216,29,19,249,245,254,125,54,245,160,253,1,73,137,234,137,138,109,226,61,11,128,41,76,115,80,43],
      "seed": "eaebabb2383351fd31d703840b32e9e2",
      "mnSeed": "turtle front uncle idea crush write shrug there lottery flower risk shell",
      "hdIndex": 2,
      "privKeyHex": "c2e25d4acaa7ff2161aeff1063227c8a6df62fc74b2f62fa218642bfb21e1072",
      "address": "252192e13218f6897fb8434c7f93f319a2a0efe9"
    },

    {
      "password" : "PassHello",
      "pwDerivedKey" : [113,91,117,133,102,129,128,16,251,116,91,122,215,255,183,202,72,108,222,129,238,46,143,236,132,13,127,227,110,202,254,112],
      "seed": "18ab19a9f54a9274f03e5209a2ac8a91",
      "mnSeed": "board flee heavy tunnel powder denial science ski answer betray cargo cat",
      "depth": 1,
      "hdIndex": 100,
      "privKeyHex": "8cf46f325252f13471a902f026abaf4fa70a7c2d38b6e23a040543cd2c8100a2",
      "address": "1ef45f7d20b7d9bd2985644968f476db184d3498"
    }
  ],
  "invalid": [
    {
      "mnSeed": "board turtle heavy tunnel powder denial science ski answer betray cargo cat"
     }
  ],
  "sha256Test" : [
    {
      "ent0": "abcdefghbcdefghicdefghijdefghijke", 
      "ent1" : "fghijklfghijklmghijklmnhijklmnoijklmnopjklmnopqklmnopqrlmnopqrsmnopqrstnopqrstu",
      "targetHash" : "cf5b16a778af8380036ce59e7b0492370b249b11e8f07a51afac45037afee9d1"
    },
    {
      "ent0": "abcdbcdecdefdefgefghfghighijhijkijkljklmklm", 
      "ent1" : "nlmnomnopnopq",
      "targetHash" : "248d6a61d20638b8e5c026930c3e6039a33ce45964ff2167f6ecedd419db06c1"
    },
    {
      "ent0": "ab",
      "ent1" : "c",
      "targetHash" : "ba7816bf8f01cfea414140de5dae2223b00361a396177a9cb410ff61f20015ad"
    }
    
  ]
}
