{
  "valid": [
    {"password" : "password",
      "seed": "77c2b00716cec7213839159e404db50d",
      "mnSeed": "jelly better achieve collect unaware mountain thought cargo oxygen act hood bridge",
      "hdIndex": 0,
      "privKeyHex": "7627f5655d3f103f0be5c90064bd3557995604e6208590986de4e1230425c1ae",
      "address": "07ed7f762488ffa46298afeba33f05a04c796833",
     "ethjsTxParams" : {"from" : "07ed7f762488ffa46298afeba33f05a04c796833",
                        "to" : "9e2068cce22de4e1e80f15cb71ef435a20a3b37c",
                        "nonce" : "00",
                        "value" : "de0b6b3a7640000",
                        "gasLimit" : "2fefd8",
                        "gasPrice" : "ba43b7400",
                       "data" : "abcdef01234567890"},
     "web3TxParams" : {"from" : "0x07ed7f762488ffa46298afeba33f05a04c796833",
                        "to" : "0x9e2068cce22de4e1e80f15cb71ef435a20a3b37c",
                        "nonce" : "0x00",
                        "value" : "0xde0b6b3a7640000",
                        "gas" : "0x2fefd8",
                        "gasPrice" : "0xba43b7400",
                       "data" : "0xabcdef01234567890"},
     "rawUnsignedTx" : "f680850ba43b7400832fefd8949e2068cce22de4e1e80f15cb71ef435a20a3b37c880de0b6b3a7640000890abcdef012345678901c8080",
     "rawSignedTx" : "f87680850ba43b7400832fefd8949e2068cce22de4e1e80f15cb71ef435a20a3b37c880de0b6b3a7640000890abcdef012345678901ca08de63b51b4b9cc5bc09f7f9610d707f43c5840b37dffe655d0073b270032511ba01c31647c5cb6d32676e73bd0ea618fa9f3fa2a7c0132e11a593b2e44cc500323"
    },

    {"password" : "asdflknwqeroilasdflkjnzvmnwmet",
      "seed": "0460ef47585604c5660618db2e6a7e7f",
      "mnSeed": "afford alter spike radar gate glance object seek swamp infant panel yellow",
      "hdIndex": 1,
      "privKeyHex": "8846068358cda43b5f00a0898ccb381402062b7cd668c0f9233845e4c0c9bc73",
      "address": "50cca5d6fd56696eaa085ca7f401c1b42c747642"
    },

    {"password" : "!@&#*#()",
      "seed": "eaebabb2383351fd31d703840b32e9e2",
      "mnSeed": "turtle front uncle idea crush write shrug there lottery flower risk shell",
      "hdIndex": 2,
      "privKeyHex": "c2e25d4acaa7ff2161aeff1063227c8a6df62fc74b2f62fa218642bfb21e1072",
      "address": "252192e13218f6897fb8434c7f93f319a2a0efe9"
    },

    {"password" : "PassHello",
      "seed": "18ab19a9f54a9274f03e5209a2ac8a91",
      "mnSeed": "board flee heavy tunnel powder denial science ski answer betray cargo cat",
      "depth": 1,
      "hdIndex": 100,
      "privKeyHex": "8cf46f325252f13471a902f026abaf4fa70a7c2d38b6e23a040543cd2c8100a2",
      "address": "1ef45f7d20b7d9bd2985644968f476db184d3498"
    }
  ],
  "invalid": [
    {
      "mnSeed": "board turtle heavy tunnel powder denial science ski answer betray cargo cat"
     }
  ],
  "sha256Test" : [
    {
      "ent0": "abcdefghbcdefghicdefghijdefghijke", 
      "ent1" : "fghijklfghijklmghijklmnhijklmnoijklmnopjklmnopqklmnopqrlmnopqrsmnopqrstnopqrstu",
      "targetHash" : "cf5b16a778af8380036ce59e7b0492370b249b11e8f07a51afac45037afee9d1"
    },
    {
      "ent0": "abcdbcdecdefdefgefghfghighijhijkijkljklmklm", 
      "ent1" : "nlmnomnopnopq",
      "targetHash" : "248d6a61d20638b8e5c026930c3e6039a33ce45964ff2167f6ecedd419db06c1"
    },
    {
      "ent0": "ab",
      "ent1" : "c",
      "targetHash" : "ba7816bf8f01cfea414140de5dae2223b00361a396177a9cb410ff61f20015ad"
    }
    
  ]
}
